:020000040000FA
:100000000C9401060C9429060C9429060C942906DC
:100010000C9429060C9429060C9429060C942906A4
:100020000C9429060C9429060C9429060C94290694
:100030000C9429060C9429060C9429060C94290684
:100040000C94311C0C9429060C94FF1B0C94D91BA6
:100050000C9429060C9429060C9429060C94290664
:100060000C947B1C0C94290608000000BE922449C5
:10007000123EABAAAA2ABECDCCCC4C3E00000080DA
:10008000BEABAAAAAA3E00000000BF000000803F4D
:100090000000000000084178D3BB4387D1133D190D
:1000A0000E3CC3BD4282AD2B3E68EC8276BED98F3A
:1000B000E1A93E4C80EFFFBE01C4FF7F3F0000007E
:1000C000000000407A10F35A00A0724E1809001088
:1000D000A5D4E80000E87648170000E40B540200BD
:1000E00000CA9A3B000000E1F505000080969800E8
:1000F000000040420F000000A08601000000102711
:1001000000000000E80300000000640000000000A0
:100110000A00000000000100000000002C76D888D2
:10012000DC674F0823DFC1DFAE59E1B1B796E5E3E5
:10013000E453C63AE651997696E8E6C28426EB89FE
:100140008C9B62ED407C6FFCEFBC9C9F40F2BAA59B
:100150006FA5F490055A2AF75C936B6CF9676DC133
:100160001BFCE0E40D47FEF520E6B500D0ED902E37
:100170000300943577050080841E080000204E0A95
:10018000000000C80C333333330F986E12831141D3
:10019000EF8D2114893BE65516CFFEE6DB18D1849E
:1001A0004B381BF77C1D901DA4BBE42420328472C5
:1001B0005E228100C9F124ECA1E53D27000000008A
:1001C000003E5B4F5B3E3E6B4F6B3E1C3E7C3E1CDD
:1001D000183C7E3C181C577D571C1C5E7F5E1C0023
:1001E000183C1800FFE7C3E7FF0018241800FFE7DA
:1001F000DBE7FF30483A060E2629792926407F059D
:100200000507407F05253F5A3CE73C5A7F3E1C1CB2
:1002100008081C1C3E7F14227F22145F5F005F5F72
:1002200006097F017F006689956A6060606060945E
:10023000A2FFA29408047E040810207E2010080863
:100240002A1C08081C2A08081E101010100C1E0C6E
:100250001E0C30383E3830060E3E0E060000000000
:100260000000005F00000007000700147F147F14E7
:10027000242A7F2A1223130864623649562050002C
:1002800008070300001C2241000041221C002A1C18
:100290007F1C2A08083E0808008070300008080803
:1002A0000808000060600020100804023E51494523
:1002B0003E00427F400072494949462141494D3341
:1002C0001814127F1027454545393C4A49493141A8
:1002D000211109073649494936464949291E000076
:1002E00014000000403400000008142241141414CB
:1002F0001414004122140802015909063E415D59B7
:100300004E7C1211127C7F494949363E41414122BF
:100310007F4141413E7F494949417F090909013EE9
:10032000414151737F0808087F00417F4100204010
:10033000413F017F081422417F404040407F021C22
:10034000027F7F0408107F3E4141413E7F09090939
:10035000063E4151215E7F09192946264949493205
:1003600003017F01033F4040403F1F2040201F3FCB
:100370004038403F63140814630304780403615950
:10038000494D43007F414141020408102000414192
:10039000417F04020102044040404040000307083E
:1003A0000020545478407F2844443838444444283A
:1003B000384444287F385454541800087E090218E1
:1003C000A4A49C787F0804047800447D4000204069
:1003D000403D007F1028440000417F40007C0478AD
:1003E00004787C080404783844444438FC182424F5
:1003F0001818242418FC7C08040408485454542475
:1004000004043F44243C4040207C1C2040201C3CF1
:100410004030403C44281028444C9090907C4464E8
:10042000544C44000836410000007700000041367B
:10043000080002010204023C2623263C1EA1A16101
:10044000123A4040207A3854545559215555794133
:100450002254547842215554784020545579400C08
:100460001E527212395555555939545454593955EB
:100470005454580000457C410002457D420001452E
:100480007C407D1211127DF0282528F07C545545C2
:10049000002054547C547C0A097F4932494949322E
:1004A0003A4444443A324A4848303A4141217A3A3F
:1004B00042402078009DA0A07D3D4242423D3D400B
:1004C00040403D3C24FF2424487E4943662B2FFCBA
:1004D0002F2BFF0929F620C0887E09032054547968
:1004E000410000447D413048484A32384040227A39
:1004F000007A0A0A727D0D19317D2629292F2826B6
:100500002929292630484D402038080808080808BD
:100510000808382F10C8ACBA2F102834FA00007B16
:10052000000008142A142222142A14085500550029
:1005300055AA55AA55AAFF55FF55FF000000FF0018
:10054000101010FF00141414FF001010FF00FF1013
:1005500010F010F0141414FC001414F700FF000045
:10056000FF00FF1414F404FC141417101F10101FC4
:10057000101F1414141F00101010F0000000001FB2
:10058000101010101F10101010F010000000FF10BD
:100590001010101010101010FF10000000FF1400B9
:1005A00000FF00FF00001F10170000FC04F41414EB
:1005B0001710171414F404F40000FF00F7141414B7
:1005C00014141414F700F7141414171410101F1037
:1005D0001F141414F4141010F010F000001F101F5A
:1005E0000000001F14000000FC140000F010F010C8
:1005F00010FF10FF141414FF141010101F0000003F
:1006000000F010FFFFFFFFFFF0F0F0F0F0FFFFFF42
:100610000000000000FFFF0F0F0F0F0F3844443899
:1006200044FC4A4A4A347E02020606027E027E02E8
:1006300063554941633844443C04407E201E2006F3
:10064000027E020299A5E7A5991C2A492A1C4C7230
:1006500001724C304A4D4D303048784830BC625AB7
:10066000463D3E494949007E0101017E2A2A2A2A47
:100670002A44445F444440514A444040444A514023
:100680000000FF0103E080FF000008086B6B0836E4
:1006900012362436060F090F060000181800000055
:1006A0001010003040FF0101001F01011E00191D44
:1006B0001712003C3C3C3C00000000000001030716
:1006C0000F1F3F7F0080C0E0F0F8FCFE0000000834
:1006D0000002010000030407000000000000000009
:1006E00000000000240027002A00DB40A4A62EAF53
:1006F0002000A1C8D300408DAED580A80000000026
:10070000250028002B000000600000000000000011
:1007100000000000000000E00000000000000000F9
:10072000000000000001E0000000000000000000E8
:100730000000000001F000000000000000000000C8
:1007400000000003F00000000000000000000000B6
:10075000000007F0000000000000000000000000A2
:100760000007F8000000000000000000000000008A
:100770000FF800000003C0007E000001E0007F0FC2
:10078000F800000003C000FE000001E000FFEFF8E9
:1007900000000003C000FE000001E000FFFFF800C1
:1007A000000003C000F00000000F007FFE7FC000CB
:1007B0000003C000F00000000F003FFE7FF83FF193
:1007C000FBCFFCFEF3BC3DEFE01FFE7FFF7FFBFF96
:1007D000DFFEFEFFBC3DEFE01FC6FFFF7FFBFFDF3C
:1007E000FEFEFFBC3DEFE00FE3C7FE787BC3DE1EDD
:1007F000F0FFBC3DEF0007FF87FC787BC3DE1EF0F7
:10080000F83C3DEF0001FFFFF0007BC3C01EF0F09D
:100810003C3DEF0001F37FE03FFBC3CFFEF0F03C37
:100820003DEF0003E33F807FFBC3DFFEF0F03C3D84
:10083000EF0007E73C00787BC3DE1EF0F03C3DEFA5
:100840000007FFBE00787BC3DE1EF0F03C3DEF00EA
:1008500007FFFE00787BC3DE1EF0F03C3DEF000F8B
:10086000FFFE007FFBFFDFFEF0F03FFDEFE00FFF3C
:10087000FF007FFBFFDFFEF0F03FFDEFE00FF9FF31
:10088000003E79F9CF9EF0F01F3DE7E01FF1FF0039
:1008900000000000000000000000001F80FF007F3B
:1008A000FFFFFFFFFFFFFFFFFFE01C007F007FFF58
:1008B000FFFFFEB46D888D18E000001F007FFFFF72
:1008C000FFFE95AD7DB577E000000F007FFFFFFFD5
:1008D000FEA5AD9D8D19E0000006007FFFFFFFFE25
:1008E000B5ADEDB57EE00000000000018000000025
:1008F0000000000000000380000000000000000075
:100900000007C000000000000000000007C0000059
:10091000000000000000000FC00000000000000008
:1009200000001FE00000000000000000001FE000C9
:1009300000000000000000003FE000000000000098
:100940000000003FF00000000000000000007FF009
:10095000000000000000001FF87FF0000000000011
:1009600000003FFE7FF0000000000000003FFF7F1E
:10097000F0000000000000001FFFFBE0000000008E
:100980000000000FFFF9FFC00000000000000FFF93
:10099000F9FFF800000000000007FFF1FFFF000072
:1009A0000000000003FC73FFFF8000000000000156
:1009B000FE3FFFFF80000000000000FF1E0FFF0051
:1009C0000000000000007FFE1FFC0000000000008F
:1009D000003FFFFFF8000000000000000FDFFFE015
:1009E000000000000000001F19FFC0000000000010
:1009F00000003F3CFF00000000000000007E7CF88B
:100A000000000000000000007FFE7C0000000000ED
:100A1000000000FFFFFC0000000000000000FFFFDE
:100A2000FE0000000000000000FFFFFE00000000CC
:100A300000000001FFEFFE0000000000000001FFC9
:100A4000CFFE0000000000000003FF07FE000000D2
:100A50000000000003FC07FE00000000000000038F
:100A6000F003FE00000000000000018000FE000016
:100A700000000000000000007E00000000000000F8
:100A80000000003E000000000000000000000C001C
:100A90000000000000078000FC000003C000000010
:100AA000078001FC000003C0000000078001FC007B
:100AB0000003C0000000078001E00000001E0000ED
:100AC00000078001E00000001E007FE3F79FF9FDB2
:100AD000E7787BDFC0FFF7FFBFFDFDFF787BDFC05E
:100AE000FFF7FFBFFDFDFF787BDFC0F0F787BC3D60
:100AF000E1FF787BDE00F0F787BC3DE1F0787BDE3C
:100B00000000F787803DE1E0787BDE007FF7879F7C
:100B1000FDE1E0787BDE00FFF787BFFDE1E0787B59
:100B2000DE00F0F787BC3DE1E0787BDE00F0F78780
:100B3000BC3DE1E0787BDE00F0F787BC3DE1E0788A
:100B40007BDE00FFF7FFBFFDE1E07FFBDFC0FFF7CB
:100B5000FFBFFDE1E07FFBDFC07CF3F39F3DE1E001
:100B60003E7BCFC00000000000000000000000FF3E
:100B7000FFFFFFFFFFFFFFFFFFC0FFFFFFFFFD685D
:100B8000DB111A31C0FFFFFFFFFD2B5AFB6AEFC0DC
:100B9000FFFFFFFFFD4B5B3B1A33C0FFFFFFFFFD75
:100BA0006B5BDB6AFDC04661696C656420746F2015
:100BB000726561642066726F6D20444854207365CD
:100BC0006E736F72210000000000230026002900D0
:100BD0002200FF21000404040404040404020202AD
:100BE000020202030303030303010204081020406E
:100BF00080010204081020010204081020009A1D40
:100C0000502411241FBECFEFD8E0DEBFCDBF24E0BB
:100C1000A2E4B2E001C01D92A630B207E1F712E0F3
:100C2000A0E0B1E0E8E6F8E502C005900D92A2343C
:100C3000B107D9F715E0C0E0D6E004C02197FE0166
:100C40000E94232ACF3FD107C9F70E943D1E0C9472
:100C5000272C0C9400000895CF92DF92EF92FF9220
:100C6000CF93DF93C82F8091A9038C3009F45EC025
:100C700038F48B30F1F060E070E080EC9FE74FC01B
:100C800085518230C0F7D091A5036D2F70E0762F8B
:100C9000662766277F778091A603682B90E080E027
:100CA0000E94B9262DEC3CEC4CEC5DE30E941A2727
:100CB00059C06091A50370E090E080E00E94B926E1
:100CC0006B017C01D091A603D7FF0AC0AC019B0148
:100CD00060E070E080E89FEB0E940F286B017C01D0
:100CE000DF706D2F70E090E080E00E94BB262DEC5D
:100CF0003CEC4CEC5DE30E941A27A70196010E9490
:100D00001028CC2361F026E636E646EE5FE30E942B
:100D10001A2720E030E040E052E40E941028DF91E2
:100D2000CF91FF90EF90DF90CF900895D091A503E1
:100D30006D2F70E090E080E00E94B9266B017C018D
:100D40006091A6036F7070E090E080E00E94BB2687
:100D50002DEC3CEC4CEC5DE30E941A27A7019601B8
:100D60000E941028D7FFCDCF9058CBCFCF92DF92E3
:100D7000EF92FF92CF93DF93B091AA03A0E081118D
:100D8000AB2F8091AB0390E0880F991FAC014A53C1
:100D9000544FC090B003D090B103E090B203F090F4
:100DA000B30330E020E0FA01C591D491E881B901A4
:100DB00090E080E0EB23EA130AC02F5F3F4F6C15F1
:100DC0007D058E059F0578F36FEF7FEFCB01DF91F7
:100DD000CF91FF90EF90DF90CF9008950895089500
:100DE000AF92BF92CF92DF92EF92FF920F931F9339
:100DF000CF93DF936C017B018B01040F151FEB0177
:100E00005E01AE18BF08C017D10759F06991D6012D
:100E1000ED91FC910190F081E02DC6010995892B9F
:100E200079F7C501DF91CF911F910F91FF90EF905E
:100E3000DF90CF90BF90AF900895FC01538D448D0B
:100E4000252F30E0842F90E0821B930B541710F075
:100E5000CF96089501970895FC01918D828D981782
:100E600061F0A28DAE0FBF2FB11D5D968C91928D5A
:100E70009F5F9F73928F90E008958FEF9FEF08958B
:100E8000FC01918D828D981731F0828DE80FF11D54
:100E9000858D90E008958FEF9FEF0895FC01918D6F
:100EA000228D892F90E0805C9F4F821B91098F7368
:100EB0009927089586E093E00E944E0721E0892B50
:100EC00009F420E0822F089580E090E0892B29F03A
:100ED0000E945A0781110C9400000895FC01A48D12
:100EE000A80FB92FB11DA35ABF4F2C91848D90E04C
:100EF00001968F739927848FA689B7892C93A0892F
:100F0000B1898C91837080648C93938D848D9813B8
:100F100006C00288F389E02D80818F7D808308954B
:100F2000EF92FF920F931F93CF93DF93EC0181E039
:100F3000888F9B8D8C8D98131AC0E889F9898081E0
:100F400085FF15C09FB7F894EE89FF896083E88913
:100F5000F98980818370806480839FBF81E090E005
:100F6000DF91CF911F910F91FF90EF900895F62E92
:100F70000B8D10E00F5F1F4F0F731127E02E8C8D2C
:100F80008E110CC00FB607FCFACFE889F989808171
:100F900085FFF5CFCE010E946E07F1CFEB8DEC0FF0
:100FA000FD2FF11DE35AFF4FF0829FB7F8940B8F8E
:100FB000EA89FB8980818062CFCFCF93DF93EC01F8
:100FC000888D8823B9F0AA89BB89E889F9898C9131
:100FD00085FD03C0808186FD0DC00FB607FCF7CFED
:100FE0008C9185FFF2CF808185FFEDCFCE010E94ED
:100FF0006E07E9CFDF91CF91089590E0FC01E453B3
:10100000F94F2491FC01E751F44F3491FC01EB526C
:10101000F44FE491EE23C9F0222339F0233001F19B
:10102000A8F4213019F1223029F1F0E0EE0FFF1F72
:10103000E450F94FA591B4918FB7F894EC916111F8
:1010400026C030953E233C938FBF08952730A9F0EA
:101050002830C9F0243049F7809180008F7D03C08B
:10106000809180008F7780938000DFCF84B58F7769
:1010700084BDDBCF84B58F7DFBCF8091B0008F77AF
:101080008093B000D2CF8091B0008F7DF9CF3E2BFE
:10109000DACFCF93DF9390E0FC01E751F44F249136
:1010A0008B52944FFC0184918823C9F090E0880F03
:1010B000991FFC01E052F94FA591B491FC01E45055
:1010C000F94FC591D49161110DC09FB7F8948C91DF
:1010D000209582238C938881282328839FBFDF91CA
:1010E000CF910895623051F49FB7F8943C91822FCC
:1010F000809583238C93E8812E2BEFCF8FB7F894C4
:10110000EC912E2B2C938FBFEACF8E50806480936E
:101110007C0080917A00806480937A0080917A00CC
:1011200086FDFCCF809178009091790008953FB7BB
:10113000F8948091F3029091F402A091F502B0919D
:10114000F60226B5A89B05C02F3F19F00196A11DF8
:10115000B11D3FBFBA2FA92F982F8827BC01CD0101
:10116000620F711D811D911D42E0660F771F881F60
:10117000991F4A95D1F708958F929F92AF92BF928F
:10118000CF92DF92EF92FF924B015C010E94970891
:101190006B017C010E9497086C197D098E099F09DB
:1011A000683E734081059105A8F321E0821A9108F9
:1011B000A108B10888EEC80E83E0D81EE11CF11C1E
:1011C00081149104A104B10429F7FF90EF90DF90FE
:1011D000CF90BF90AF909F908F900895CF92DF9265
:1011E000EF92FF920F931F93CF93DF93CDB7DEB7AC
:1011F000C054D1400FB6F894DEBF0FBECDBF2FB79D
:10120000F8948091FE029091FF02A0910003B091AA
:1012100001032FBF4091AC035091AD036091AE0329
:101220007091AF038C019D01041B150B260B370B2E
:10123000B901A801403D57406105710590F48091C6
:10124000B403C05CDE4F0FB6F894DEBF0FBECDBF57
:10125000DF91CF911F910F91FF90EF90DF90CF9092
:1012600008958093AC039093AD03A093AE03B09325
:10127000AF031092A7031092A6031092A503109239
:10128000A4031092A30362E08091A8030E9449087E
:1012900061E070E080E090E00E94BC0861E0809135
:1012A000A8030E94490860E08091A8030E94FD07FE
:1012B0008091A9038551823020F58BE291E101975D
:1012C000F1F762E08091A8030E9449088091B5037C
:1012D00090E08230910538F0880F991F880F991F90
:1012E00005970197F1F7F89480E00E94B6066F3FEA
:1012F0007F4F8F4F9F4F61F41092B403789480E03A
:10130000A0CF64E170E080E090E00E94BC08D9CFFB
:1013100081E00E94B6066F3F7F4F8F4F9F4F61F372
:101320008E010F5F1F4F6E018FEBC81A8EEFD80A28
:10133000780180E00E94B606F701608371838283A2
:10134000938381E00E94B606F701648375838683E8
:101350009783F8E0EF0EF11CEC14FD0451F778943C
:1013600030E020E0F801C080D180E280F380448149
:10137000558166817781FFEFCF16DF06EF06FF0606
:1013800031F04F3F8FEF58076807780719F4109234
:10139000B403B5CFF90183E0F595E7958A95E1F7B8
:1013A000ED55FC4F8081880FC416D506E606F7067A
:1013B00010F180832F5F3F4F085F1F4F28323105A8
:1013C00089F64091A7032091A3038091A403280FDD
:1013D0003327331F8091A503280F311D8091A60369
:1013E000820F932F911D99274817190681F681E0E6
:1013F0008093B40326CF8160DCCFEF92FF920F93EE
:101400001F93CF93DF93EC01EC80FD806E157F0579
:101410000CF070C057FF04C0240F351F50E040E0AF
:101420008E819F81FA01E20FF31F8E179F071CF434
:101430009C01241B350B121613060CF05BC0922F77
:10144000842F8695869586958E9DD0018F9DB00DB3
:1014500011246A0F7B1FAF8DB8A1A60FB71F47706D
:1014600049F188E0841B482F682F70E0FB01EC53A2
:10147000F94FE491281708F063C0621B71092FEF40
:1014800030E002C0359527956A95E2F7E2230130F6
:10149000110539F0B0F10230110561F58C91E827A2
:1014A00002C08C91E82BEC93941720F12C813D81A4
:1014B000A20FB31FE92FE41BE83078F002301105CA
:1014C00021F58E2F9C9190959C932C813D81A20FAC
:1014D000B31F88508830B0F7E770EE2359F0F0E082
:1014E000E454F94FE49101301105F9F010F10230A4
:1014F000110519F1DF91CF911F910F91FF90EF909E
:101500000895E0958C91E823CECF81E00115110577
:1015100009F480E081959E2F8C932C813D81A20F50
:10152000B31F98509830C0F7D7CF8C91E82BEC932D
:10153000E1CFE0958C91E823FACF8C91E827F7CFA3
:101540000130110509F4ADCFE0F20230110509F4C4
:10155000A5CFAE0DBF1DAECF0F931F93CF93DF93DB
:1015600077FF04C0260F371F70E060E0DC0114969F
:10157000CD91DC91FB01E20FF31FCE17DF071CF4C6
:101580009E01261B370B121613064CF5FA0157FD68
:101590003796A3E0F595E795AA95E1F7EC9FD00182
:1015A000ED9FB00DFC9FB00D11246A0F7B1FDC0175
:1015B0005F96ED91FC91E60FF71F4770552781E08C
:1015C00090E001C0880F4A95EAF7482F01301105D5
:1015D00059F0A8F02E0F3F1F02301105E1F0DF9106
:1015E000CF911F910F9108952E0F3F1FE217F30720
:1015F000B1F38191DF011197842B8C93F7CF809504
:101600002E0F3F1FE217F30751F39191DF0111975E
:1016100098239C93F7CFE217F30709F38191DF0139
:10162000119784278C93F7CF0F931F93FA01DC0156
:1016300056964C9156974230E9F04330A1F1413033
:1016400061F514964D915C91DA01AE1BBF0BFD0163
:10165000E21BF30B77FD0BC0DC0116964D915C91FC
:101660006417750724F4AB01BF010E94AC0A1F91F7
:101670000F91089514964D915C91DA01A61BB70B5A
:10168000BD0161507109DC0116964D915C91DA0142
:10169000AE1BBF0BFD01E21BF30B77FDE8CFAF01E3
:1016A0000E94FD09E4CF16964D915C91DA01A61BCC
:1016B000B70BBD0161507109CDCF0F931F93FA0194
:1016C000DC0156964C9156974230A9F0433091F187
:1016D000413019F514964D915C91DA01AE1BBF0BA8
:1016E000FD013197F7FD04C0AB01BF010E94FD0968
:1016F0001F910F91089514964D915C91DA01A61BEC
:10170000B70BBD01DC0116964D915C91DA01AE1B61
:10171000BF0BFD013197621B730BF7FDE9CFDC01B5
:1017200016964D915C91E417F50714F7AF010E94EE
:10173000AC0ADECF16964D915C91DA01A61BB70B71
:10174000BD01621B730BCECFFC0177FD64C08085A9
:101750009185681779070CF05EC057FD5CC08285E3
:101760009385481759070CF056C086898230B1F02E
:10177000833029F1813041F484819581841B950B5C
:10178000AB01BC01615071092130310509F108F448
:1017900043C02230310509F463C0089584819581E6
:1017A000DC01A61BB70BBD016150710986819781D1
:1017B000DC01A41BB50BAD0141505109E5CF868179
:1017C0009781861B970BBA01AC0141505109DCCFC0
:1017D000CA0157FD0796A3E095958795AA95E1F76D
:1017E000A481B5818A9F90018B9F300D9A9F300D07
:1017F0001124620F731F078CF0A1E02DE60FF71F75
:101800004770552721E030E001C0220F4A95EAF7E2
:101810008081822B80830895CA0157FD079633E0AB
:10182000959587953A95E1F7A481B5818A9F9001B6
:101830008B9F300D9A9F300D1124620F731F078C00
:10184000F0A1E02DE60FF71F4770552781E090E0EB
:1018500001C0880F4A95EAF7809590818923DACFF5
:10186000CA0157FD079623E0959587952A95E1F7DC
:10187000A481B5818A9F90018B9F300D9A9F300D76
:101880001124620F731F078CF0A1E02DE60FF71FE4
:101890004770552721E030E001C0220F4A95EAF752
:1018A00080818227B7CF08958EBD00000DB407FE5A
:1018B000FDCF8EB508958CBD9DBD08950895FC01A2
:1018C0006370668B8481958126813781613039F020
:1018D000633029F091878087338722870895318785
:1018E00020879387828708952F923F924F925F922D
:1018F0006F927F928F929F92AF92BF92CF92DF9220
:10190000EF92FF920F931F93CF93DF93CDB7DEB784
:101910006A970FB6F894DEBF0FBECDBF9A8F898F3E
:101920007A8369834A01D22E18870F833701BC2C32
:10193000DC0159962D913C915A972115310509F0FA
:1019400015C118968D919C911997681779070CF01D
:10195000D7C11A968D919C91481759070CF0D0C1A8
:101960004C2C512CB6E0CB9E600D711D11247C8750
:101970006B87161617060CF0C3C1EA2DF0E0FA8744
:10198000E98793E0EE0FFF1F9A95E1F7F88BEF8759
:10199000CF01840F951F181619060CF0B1C1A98D3F
:1019A000BA8D58968C91811104C0BFEABD1508F418
:1019B000D394A98DBA8DED91FC9111970284F38592
:1019C000E02DCD010995B5E0DB9EC0011124E98130
:1019D000FA81FC83EB83312C212C9C0124543E4F53
:1019E000388F2F8B4A2D50E05E8B4D8BEF89F88D11
:1019F000E20DF31D44919E828D82D12CC12C698110
:101A00007A81620D731D7A8B698B842F90E09C8B99
:101A10008B8BE98DFA8DA081B18140FF82C0F1E00E
:101A2000BF126FC0AF126DC01C96ED91FC912F815B
:101A30003885A4014C0D5D1D69897A89898D9A8D3F
:101A40000995EB89FC89F595E7954E2F5FEFC51A4F
:101A5000D50A6D817E818D899E89680F791F7E836D
:101A60006D8398E0C916D10481F6AFEF2A1A3A0ABD
:101A7000EB81FC81E40DF51DFC83EB83F5E02F1673
:101A8000310409F0B3CF2F81388526153705B9F019
:101A9000A98DBA8DED91FC91B1E0BB1257C0AB128C
:101AA00055C069817A816B5F7F4F0088F189E02D95
:101AB000830128E030E0A401898D9A8D0995A98DD4
:101AC000BA8DED91FC9111970688F789E02DCD0133
:101AD0006A960FB6F894DEBF0FBECDBFDF91CF91EF
:101AE0001F910F91FF90EF90DF90CF90BF90AF903C
:101AF0009F908F907F906F905F904F903F902F902E
:101B000009941E96ED91FC91EF80F88409851A8561
:101B100092014D815E816B817C81898D9A8D0995C1
:101B200090CF2F8138852615370509F48ACF31E00B
:101B3000B31207C0A31205C01C96ED91FC9193014E
:101B400078CF1E96ED91FC917301E0CF6B857C857B
:101B5000641975090684F785E02D73010F851889CE
:101B60009201A401898D9A8D0995A9CFF901349626
:101B70009491329745915491D91AB7E0DB9E400D6C
:101B8000511D1124F901259134913C8B2B8BFA01C5
:101B900025903490FA013296749031963491398BB5
:101BA000329664903196449041E04C1518F04A15F5
:101BB00008F07FC0662D062C000C770B7C836B83AE
:101BC000842D042C000C990B9E838D83A98DBA8DD6
:101BD000ED91FC9111970284F385E02DCD010995DB
:101BE000512CD12CC12CEA2DF0E0FA87E9872B2D5E
:101BF00030E03C872B87A401440D511D47FC5A95CA
:101C0000588F4F8B69817A81660D711D67FC7A95BB
:101C10007E876D877989C71608F051CF2C2D30E06B
:101C20004D815E81420F531FA985BA854A9FC0012D
:101C30004B9F900D5A9F900D1124FC01E80DF91D4A
:101C4000F88BEF87852D612C4F89588D420F531FDC
:101C50005E8B4D8B671408F050C044244394480EAB
:101C6000877041F4C1010196EB89FC89E20DF31DF7
:101C7000D4901C01D7FE19C0A98DBA8DED91FC91AD
:101C8000662D70E0B1E0BB1219C0AB1217C02D85F4
:101C90003E85620F731F0484F585E02D2F81388502
:101CA0004D895E89898D9A8D0995DD0C6394842D0B
:101CB000D1CF1E821D821C821B8288CF4B815C810A
:101CC000640F751FAB85BC856A9FC0016B9F900D2B
:101CD0007A9F900D112469817A81680F791F06849B
:101CE000F785E02DEF80F88409851A859D014F85E1
:101CF0005889898D9A8D0995D8CF570CC3948ACF6E
:101D00006A960FB6F894DEBF0FBECDBFDF91CF91BC
:101D10001F910F91FF90EF90DF90CF90BF90AF9009
:101D20009F908F907F906F905F904F903F902F90FB
:101D300008958F929F92AF92CF92EF92FF920F935E
:101D40001F93CF93DF93EC01262F898D9A8D0097F7
:101D500009F051C06A30D1F41D861C868D8948E097
:101D6000849F900111248E859F85820F931F9F87EA
:101D70008E8781E090E0DF91CF911F910F91FF90CE
:101D8000EF90CF90AF909F908F9008956D3089F332
:101D9000CC88AD888F898823C1F08C859D8536E0FD
:101DA000C39E800D911D11244885598548175907F8
:101DB00064F44E855F851D861C8638E0A39EC001B5
:101DC0001124840F951F9F878E87EA88FB880889D6
:101DD00019894E855F856C857D85CE010E94740CC6
:101DE0002C898C859D8546E0249F800D911D1124B2
:101DF0009D878C87BECF6A3069F41D861C86FC01E6
:101E00003896E4912D898E859F85E29F800D911DE6
:101E10001124ADCF6D3009F4ACCFFC013496349170
:101E2000631708F4A6CF3296E491E61708F4A1CF21
:101E3000FC01329685909490462F431B342F47E047
:101E4000349F800C911C1124F40132963491319608
:101E5000E4913323A9F1EE2399F1CC88F40135966E
:101E6000E491AD884F89442301F10E2E000CFF0B45
:101E7000E30FF11DCE9EA001CF9E500D11246C8565
:101E80007D85460F571F68857985641775076CF443
:101E90004E855F851D861C86FC013896E491AE9EBA
:101EA000400D511D11245F874E87EA88FB88088901
:101EB00019894E855F856C857D85CE010E94740CE5
:101EC000F4013496E4912C898C859D85E29F800DE8
:101ED000911D11248DCF6F927F928F929F92AF921E
:101EE000BF92CF92DF92EF92FF920F931F93CF9307
:101EF000DF93EC016B015A0139014801E881F98156
:101F00000284F385E02D0995E881F9810288F3893F
:101F1000E02D87019301A501B601CE010995A50128
:101F2000480D591D41505109E881F9810288F38912
:101F3000E02D9301B601CE010995E881F981008871
:101F4000F189E02D9401A501B601CE010995C60CD9
:101F5000D71CB60161507109E881F9810088F189C7
:101F6000E02D9401A501CE010995E881F98106884B
:101F7000F789E02DCE01DF91CF911F910F91FF9056
:101F8000EF90DF90CF90BF90AF909F908F907F9019
:101F90006F9009946F927F928F929F92AF92BF92AF
:101FA000CF92DF92EF92FF920F931F93CF93DF9325
:101FB0005C01EB016A01490138018701DC01ED9107
:101FC000FC916217730719F5641675062CF0962DAF
:101FD000872D3A01C92ED82E9601261937092F5F71
:101FE0003F4F048CF58DE02DA301BE01C50109957D
:101FF000DF91CF911F910F91FF90EF90DF90CF90E5
:10200000BF90AF909F908F907F906F9008954615EE
:10201000570591F42617370724F0892D4B01C22F5D
:10202000D82F9E01281939092F5F3F4F068CF78D55
:10203000E02DA601B401DACF0284F385E02D0995E5
:10204000D501ED91FC910488F589E02D830194017F
:10205000A601BE01C5010995D501ED91FC91068847
:10206000F789E02DC501DF91CF911F910F91FF906E
:10207000EF90DF90CF90BF90AF909F908F907F9028
:102080006F900994EF92FF920F931F93DC011A96C1
:102090000D911C911B9718962D913C911997ED91DC
:1020A000FC9100A0F1A1E02D7B0150E040E070E048
:1020B00060E009951F910F91FF90EF9008954F9266
:1020C0005F926F927F928F929F92AF92BF92CF92C8
:1020D000DF92EF92FF920F931F93CF93DF936C01E8
:1020E0002B015A0139014801DC01ED91FC91028478
:1020F000F385E02D0995E201640C751CD601ED9184
:10210000FC91C615D7055CF40088F189E02D8701A4
:102110009401A501BE01C60109952196EFCF06885D
:10212000F789E02DC601DF91CF911F910F91FF90AC
:10213000EF90DF90CF90BF90AF909F908F907F9067
:102140006F905F904F9009948F929F92AF92BF9241
:10215000CF92DF92EF92FF920F931F93CF93DF9373
:10216000EC015B014A016901E881F9810284F38590
:10217000E02D099595012C0D3D1D21503109E88177
:10218000F9810488F589E02D78018401A401B50165
:10219000CE010995E881F9810688F789E02DCE0105
:1021A000DF91CF911F910F91FF90EF90DF90CF9033
:1021B000BF90AF909F908F9009948F929F92AF9213
:1021C000BF92CF92DF92EF92FF920F931F93CF9324
:1021D000DF93EC015B014A0169017801E881F98133
:1021E0000284F385E02D0995C80CD91C86010150A5
:1021F0001109E881F9810488F589E02D9501A40190
:10220000B501CE010995E881F9810688F789E02DAD
:10221000CE01DF91CF911F910F91FF90EF90DF9052
:10222000CF90BF90AF909F908F900994EF92FF92C4
:102230000F931F93DC01ED91FC9100A0F1A1E02D23
:1022400009951F910F91FF90EF9008950F931F93A1
:10225000DC01ED91FC91068CF78DE02D09951F9125
:102260000F9108950F931F93DC01ED91FC91048C65
:10227000F58DE02D09951F910F910895DC01ED91E9
:10228000FC910084F185E02D09943F924F925F927A
:102290006F927F928F929F92AF92BF92CF92DF9276
:1022A000EF92FF920F931F93CF93DF935C017B011B
:1022B0004A016901390187E0680E711C93E0759449
:1022C00067949A95E1F72B01400E511E10E000E053
:1022D000312CD0E0C0E0CE0187709927330C892BD8
:1022E00059F4FE0183E0F595E7958A95E1F7E00F53
:1022F000F11FE80DF91D349037FE0AC021E030E0EF
:10230000A701B5016C0F7D1F82EC93E00E943E1186
:102310002196CC16DD06F9F68FEFE81AF80A060DBD
:10232000171DE414F504A9F6DF91CF911F910F91C9
:10233000FF90EF90DF90CF90BF90AF909F908F90E5
:102340007F906F905F904F903F9008952F923F92B3
:102350004F925F926F927F928F929F92AF92BF92B5
:10236000CF92DF92EF92FF920F931F93CF93DF9361
:1023700000D000D000D0CDB7DEB73C016A013E836B
:102380002D83FC82EB825801A41AB50AB7FE03C064
:10239000B194A194B1088D809E80861A970A97FE09
:1023A00003C09194819491088A149B045CF0902F4F
:1023B000812F0D811E819D838E839C2D8D2D6B0120
:1023C000692F782F0C151D055CF09D818E817E8311
:1023D0006D83692F782F902F812F8601C92ED82EDB
:1023E0001601201A310A2B012D813E81421A530A0F
:1023F00057FE03C0519441945108710137FE03C048
:102400003FEFE31AF30AF594E7948D819E818617D6
:1024100097075CF5A1E0B0E0BA83A983C016D106A6
:102420004CF1D301ED91FC910484F585E02D2B81D5
:102430003C81A8016D817E818A149B041CF04D8132
:102440005E81B801C3010995E418F508F7FE0AC0DA
:102450002D813E8189819A81280F391F3E832D83EA
:10246000E20CF31C0F5F1F4FD9CF2FEF3FEF3A83E2
:102470002983D4CF26960FB6F894DEBF0FBECDBF0A
:10248000DF91CF911F910F91FF90EF90DF90CF9050
:10249000BF90AF909F908F907F906F905F904F9084
:1024A0003F902F90089508952091A802260F33277A
:1024B000331F21323105ECF42091CC02FC0190E075
:1024C00080E0243069F082E00895A091A802219173
:1024D000AC0148575D4FA40FB52FB11D2C93019649
:1024E000861798F38091A802680F6093A80280E095
:1024F000089581E008951092CC0281E08093CE028D
:102500001092CD0261E082E10E94FD0761E083E16B
:102510000E94FD07E9EBF0E080818E7F808380815F
:102520008D7F808388E48093B80085E48093BC002D
:102530000895CF93DF9391E0909387028823B9F0B9
:10254000C091B800D091BA008091BC008A7B809382
:10255000BC0060E082E10E94FD0760E083E10E9430
:10256000FD070E947B12D093BA00C093B800DF91A0
:10257000CF910895E091FD028091FC02E81730F4BC
:10258000F0E0EE59FD4F808190E008958FEF9FEFCE
:1025900008959091FD028091FC022FEF3FEF981774
:1025A00048F4E92FF0E0EE59FD4F208130E09F5FC5
:1025B0009093FD02C90108958091FC029091FD0263
:1025C000891B990B0895CF92DF92EF92FF920F93A0
:1025D0001F93CF93DF937C01CB018A0120910503E8
:1025E000222389F0EB016B01C40ED51ECC15DD054D
:1025F00069F06991D701ED91FC910190F081E02D96
:10260000C7010995F3CF642F0E945412C801DF91CE
:10261000CF911F910F91FF90EF90DF90CF90089591
:10262000CF93DF931F92CDB7DEB769832091050367
:102630002223F9F020910203203258F021E030E00B
:10264000FC013383228390E080E00F90DF91CF91F3
:10265000089580910303E82FF0E0EE5BFD4F998130
:1026600090838F5F809303038093020381E090E067
:10267000ECCF61E0CE0101960E945412F7CFCF92C9
:10268000DF92EF92FF920F931F93CF93DF93D0913E
:10269000020381E0D13208F09CC0C09104030E9483
:1026A00097086B017C018091CC0281116CC082E0A3
:1026B0008093CC0281E08093CE028FEF8093CB0297
:1026C0001092F002D093EF02A2E4B2E0EFECF2E05D
:1026D00080E0D8138DC01092F1028091F102CC0FEE
:1026E000C82BC093F1028091CD02813009F084C0E3
:1026F0001092CD020E9497086B017C018091F1023B
:102700008093BB008091830290918402A091850206
:10271000B0918602892B8A2B8B2BA1F00E949708FF
:1027200000918302109184022091850230918602EB
:102730006C197D098E099F090617170728073907A5
:1027400008F442C08091BC0083FDD8CF85EC809313
:10275000BC000E9497086B017C018091CC02823002
:1027600009F44CC08091CB028F3F09F469C080917D
:10277000CB02803209F466C08091CB02803309F429
:1027800063C084E026C08091830290918402A0916E
:102790008502B0918602892B8A2B8B2B09F483CF7B
:1027A0000E94970800918302109184022091850273
:1027B000309186026C197D098E099F09061717074B
:1027C0002807390708F06FCF809182020E94991282
:1027D00085E0109203031092020310920503DF912B
:1027E000CF911F910F91FF90EF90DF90CF900895C0
:1027F0009D9191938F5F6DCF85EEA9CF80918302DC
:1028000090918402A0918502B0918602892B8A2B37
:102810008B2B09F4A2CF0E9497080091830210919C
:10282000840220918502309186026C197D098E09FF
:102830009F09061717072807390708F08ECFC4CF5E
:1028400080E0C7CF82E0C5CF83E0C3CFEF92FF9295
:102850000F931F93CF93DF937C01C62F8091DF03EB
:102860009091E003009709F459C02091E30331E00F
:102870003093050320930403109203031092020384
:10288000DC01ED91FC910190F081E02D60E0099573
:102890008701EE24E394F12CD1E0C1508091DF0355
:1028A0009091E003CF3F91F1B0E2EB16F104D8F044
:1028B0000E943F138091DF039091E0032091E30396
:1028C000D093050320930403109203031092020394
:1028D000DC01ED91FC910190F081E02D60E0099523
:1028E000EE24E394F12C8091DF039091E003F80152
:1028F0006491DC01ED91FC910190F081E02D09954E
:10290000BFEFEB1AFB0A0F5F1F4FC7CFDF91CF91CD
:102910001F910F91FF90EF900C943F13E091EF0304
:10292000F091F00390818091F50380958923808355
:102930008701C15008F438C0F80184912091DD036B
:102940003091DE03232B29F00E94540C0F5F1F4FA0
:10295000F0CF28E030E040E8E091EB03F091EC03A9
:102960009091F303582F5423D9F05081952B9083E5
:10297000E091ED03F091EE0390815091F403952BDB
:102980009083E091ED03F091EE0350819091F40378
:10299000909595239083469521503109E9F6D6CF3D
:1029A000508190959523E3CFDF91CF911F910F91A7
:1029B000FF90EF9008951F93CF93DF93EC018D8DDF
:1029C0009E8D009721F1162F29A131E03093050348
:1029D000209304031092030310920203DC01ED9193
:1029E000FC910190F081E02D60E009958D8D9E8D28
:1029F000DC01ED91FC910190F081E02D612F0995B2
:102A00008D8D9E8DDF91CF911F910C943F13ADA5BD
:102A1000BEA59C918BA9809589238C938B8D9C8DD1
:102A2000892B31F0862FDF91CF911F910C94540C9C
:102A300028E030E080E8A9A5BAA599A9462F482347
:102A4000C1F04C91942B9C93ABA5BCA59C914AA939
:102A5000942B9C93ABA5BCA54C919AA990959423DB
:102A60009C9386952150310931F7DF91CF911F91C9
:102A700008954C9190959423E6CFDF92EF92FF92C8
:102A80000F931F93CF93DF938091DF039091E00327
:102A9000892B09F498C02091F7033091F8034091F5
:102AA000F9035091FA0360E074E284EF90E00E9431
:102AB000012A205131094109510956954795379509
:102AC00027952093B80065E080ED9BE00E942614D6
:102AD0006091C603615082EC93E00E94DB14209168
:102AE000C8033091C903C901079697FD079633E0E3
:102AF000959587953A95E1F72091C6033091C703E4
:102B0000829F8001839F100D929F100D1124C09110
:102B1000E103D091E2038091DF039091E0030C0F79
:102B20001D1F009709F48FC02091E30331E030931B
:102B30000503209304031092030310920203DC01A7
:102B4000ED91FC910190F081E02D60E40995EE2477
:102B5000E394F12CDD24D3948091DF039091E00382
:102B60000C171D0709F446C0B0E2EB16F104D8F0CB
:102B70000E943F138091DF039091E0032091E303D3
:102B8000D0920503209304031092030310920203D2
:102B9000DC01ED91FC910190F081E02D60E409955C
:102BA000EE24E394F12C8091DF039091E00369918E
:102BB000DC01ED91FC910190F081E02D0995BFEFD2
:102BC000EB1AFB0AC9CF8091DD039091DE03892BBC
:102BD00031F080910004909101040E945B0CE0911F
:102BE000F103F091F20390818091F603809589239F
:102BF000808369CF0E943F138091DF039091E003AF
:102C0000892B09F461C02091FB033091FC034091B2
:102C1000FD035091FE0360E074E284EF90E00E94B7
:102C2000012A205131094109510956954795379597
:102C300027952093B800DF91CF911F910F91FF90BE
:102C4000EF90DF900895E091EF03F091F003808121
:102C50009091F503892B80830C171D0769F28991E8
:102C60002091DD033091DE03232B19F00E94540CD8
:102C7000F3CF28E030E040E8E091EB03F091EC0383
:102C80009091F303582F5423D9F05081952B9083C2
:102C9000E091ED03F091EE0390815091F403952BB8
:102CA0009083E091ED03F091EE0350819091F40355
:102CB000909595239083469521503109E9F6CCCF24
:102CC000508190959523E3CFE091F103F091F203C9
:102CD00080819091F603892B8083ADCF1F93CF9392
:102CE000DF93EC01162F8D8D9E8D892BB1F12DA9CF
:102CF0003EA94FA958AD60E074E284EF90E00E94D5
:102D0000012A2051310941095109569547953795B6
:102D100027952093B80066EA111167EACE010E9458
:102D2000DB148D8D9E8D892B41F129AD3AAD4BADD4
:102D30005CAD60E074E284EF90E00E94012A2051D3
:102D400031094109510956954795379527952093A3
:102D5000B800DF91CF911F9108958B8D9C8D892BA9
:102D600021F08EAD9FAD0E945B0CEFA5F8A990817C
:102D70008CA9809589238083CECFEFA5F8A9808187
:102D80009CA9892B8083E5CF90E080E00895209175
:102D9000C8033091C903C901079697FD079623E040
:102DA000959587952A95E1F72091C6033091C70341
:102DB000829FA001839F500D929F500D112470E0BF
:102DC00060E08091E1039091E2030C94192C4F9202
:102DD0005F926F927F928F929F92AF92BF92CF92AB
:102DE000DF92EF92FF920F93CF93DF93CDB7DEB7D1
:102DF00028970FB6F894DEBF0FBECDBF6B017C01E4
:102E000049015A0101110EC026E636E646EE5FE39F
:102E10000E941A2720E030E040E052E40E9410288F
:102E20006B017C0120E030E048E852E4C701B601C4
:102E30000E940F282AE939E949E95FE30E941A272D
:102E40002B013C0120E030E044E752E4C701B60129
:102E50000E9410289B01AC01C301B2010E941028FE
:102E60002B013C0122E133E840EC5DE3C501B401F4
:102E70000E941A279B01AC01C301B2010E941028D5
:102E800020E030E040E05FE30E941A272B013C0184
:102E900020E030E04EE952E40E941D2918160CF0A3
:102EA00023C1A7019601C701B6010E941A272B0171
:102EB0003C01A5019401C501B4010E941A276D834C
:102EC0007E838F83988721E133E243E050E4C7019A
:102ED000B6010E941A2729E134E849E252E40E942F
:102EE0000F2869837A838B839C8326E13BE442E24B
:102EF00051E4C501B4010E941A279B01AC0169810C
:102F00007A818B819C810E94102869837A838B83CC
:102F10009C8328E436E246E65EEBC701B6010E94D8
:102F20001A27A50194010E941A279B01AC0169810F
:102F30007A818B819C810E94102869837A838B839C
:102F40009C8320EE3FE040EE5BEBC301B2010E94A8
:102F50001A279B01AC0169817A818B819C810E9437
:102F6000102869837A838B839C8328EF37E840E6B7
:102F70005DEB6D817E818F8198850E941A279B0170
:102F8000AC0169817A818B819C810E9410286983C0
:102F90007A838B839C832CEA3DE041EA5AE3C301A8
:102FA000B2010E941A27A50194010E941A279B01D1
:102FB000AC0169817A818B819C810E941028698390
:102FC0007A838B839C8328EC3FE84FE55AE3C70163
:102FD000B6010E941A272D813E814F8158850E949B
:102FE0001A279B01AC0169817A818B819C810E94A7
:102FF000102869837A838B839C8321EF3BE845E02B
:1030000056EBC301B2010E941A272D813E814F81E8
:1030100058850E941A279B01AC0169817A818B81B6
:103020009C810E9410282B013C0120E030E040E50B
:1030300051E4C501B4010E94B42687FF88C020E096
:1030400030E040EA52E4C701B6010E941D2987FD25
:103050007EC020E030E040EE52E4C701B6010E949D
:10306000B42618160CF4BDC0A501940160E070E010
:1030700080E591E40E940F2820E030E040E85EE324
:103080000E941A274B015C0120E030E04EEB52E435
:10309000C701B6010E940F286B017C0120E030E0DF
:1030A000A9010E941D2918160CF048C0A70196011D
:1030B00060E070E088E891E40E940F282EE33DEE86
:1030C00040E75DE30E941A270E9480299B01AC0122
:1030D000C501B4010E941A279B01AC01C301B201D2
:1030E0000E940F282B013C01011110C020E030E0AC
:1030F00040E052E4C301B2010E940F2826E838E301
:103100004EE05FE30E941A272B013C01C301B2018C
:1031100028960FB6F894DEBF0FBECDBFDF91CF91DA
:103120000F91FF90EF90DF90CF90BF90AF909F9066
:103130008F907F906F905F904F90089520E030E0E7
:1031400048E851E4C701B6010E941028B7CF20E03B
:1031500030E04AEA52E4C501B4010E941D29181664
:103160001CF620E030E040EA52E4C701B6010E94BC
:103170001D2987FDB9CF20E030E04EEA52E4C701B7
:10318000B6010E94B42618160CF4AECF20E030E051
:103190004AEA52E4C501B4010E940F282DEC3CEC30
:1031A0004CEC5DE30E941A274B015C01A7019601DC
:1031B00060E070E08EEA92E40E940F282DEC3CEC77
:1031C0004CE45EE30E941A279B01AC01C501B401E7
:1031D0000E941A279B01AC01C301B2010E94102872
:1031E00081CF20E030E04AEA52E4C501B4010E94F8
:1031F0001D2918160CF4BFCF77CF0E940B2CFB01B2
:1032000001900020E9F73197AF01461B570BDC0115
:10321000ED91FC910280F381E02D0994CF93DF932F
:10322000FC01448155816081718182EC93E00E94B0
:10323000F006EC0166E571E082EC93E00E94FF1875
:103240008C0F9D1FDF91CF9108958F929F92AF9227
:10325000BF920F931F93CF93DF93CDB7DEB7A197A4
:103260000FB6F894DEBF0FBECDBF19A2423008F4EE
:103270004AE08E010F5D1F4F842E912CB12CA12CA2
:10328000A50194010E94012AE62FB901CA01EA3082
:1032900004F5E05DD801EE938D01232B242B252B23
:1032A00079F790E080E0109729F0BD0186E093E087
:1032B0000E94FF18A1960FB6F894DEBF0FBECDBFD7
:1032C000DF91CF911F910F91BF90AF909F908F9002
:1032D0000895E95CDFCF4F925F926F927F928F9259
:1032E0009F92AF92BF92CF92DF92EF92FF920F9395
:1032F0001F93CF936B017C01742EAC019B010E9444
:10330000C02969E571E0811126C046015701E894A2
:10331000B7F82FEF3FEF4FE75FE7C501B4010E9419
:10332000C02981110CC02FEF3FEF4FE75FE7C501C8
:10333000B4010E94B4266DE571E0181664F02FEF19
:103340003FEF4FE75FE4C701B6010E941D29181641
:10335000ACF461E671E086E093E0CF911F910F91AC
:10336000FF90EF90DF90CF90BF90AF909F908F90A5
:103370007F906F905F904F900C94FF182FEF3FEF6E
:103380004FE75FECC701B6010E94B42687FDE1CF8D
:1033900020E030E0A901C701B6010E94B42610E088
:1033A00000E087FF0AC06DE286E093E00E9490078C
:1033B0008C01F7FAF094F7F8F094C0E060E070E068
:1033C00080E09FE37C1641F020E030E040E251E4F1
:1033D0000E947C28CF5FF6CFA70196010E9410289B
:1033E0002B013C010E94EE284B015C014AE00E9447
:1033F00025197C01E00EF11ECC23C1F1C501B401F9
:103400000E94B9269B01AC01C301B2010E940F28A2
:103410004B015C016EE286E093E00E949007E80EAB
:10342000F91EC15018F120E030E040E251E4C5013E
:10343000B4010E941A272B013C010E94EE284B0187
:10344000B12CA12C4AE0C501B4010E942519E80E57
:10345000F91EC501B4010E94B9269B01AC01C3014C
:10346000B2010E940F284B015C01DBCFC701CF9155
:103470001F910F91FF90EF90DF90CF90BF90AF9092
:103480009F908F907F906F905F904F9008950F93D3
:103490001F93CF93DF93EC010E94FF188C0166E528
:1034A00071E0CE010E94FF18800F911FDF91CF9134
:1034B0001F910F9108950C94FF180F931F93CF93B2
:1034C000DF93EC0188819981009759F02A813B8133
:1034D0002617370730F081E0DF91CF911F910F91D0
:1034E00008958B016F5F7F4F0E944E2B009759F01C
:1034F000998388831B830A832C813D81232B59F771
:10350000FC011082E8CF80E0E7CFEF92FF920F93AB
:103510001F93CF93DF936115710541F480E0DF9134
:10352000CF911F910F91FF90EF9008954115510594
:10353000B1F07B01EC010C811D81040F151FB80156
:103540000E945D1A882351F3288139818C819D81E5
:10355000B701820F931F0E94202C1D830C8381E0F2
:10356000DECFCF93DF93EC0188819981009711F032
:103570000E94C52A198218821D821C821B821A820F
:10358000DF91CF910895CF93DF93EC01FB01019080
:103590000020E9F73197AF01461B570B0E94851AAF
:1035A000811103C0CE010E94B11ACE01DF91CF91EB
:1035B0000895CF93DF93EC01FB0144815581608135
:1035C00071810E94851A811103C0CE010E94B11A37
:1035D000CE01DF91CF910895EF92FF920F931F9349
:1035E000CF93DF93EC017B01198218821B821A8230
:1035F0001D821C82FB0101900020E9F731978F01A9
:10360000061B170BB8010E945D1A811109C0CE017B
:10361000DF91CF911F910F91FF90EF900C94B11A11
:103620001D830C83B70188819981DF91CF911F9110
:103630000F91FF90EF900C94202CFC0180819181E0
:10364000009711F00C94C52A0895CF92DF92EF9263
:10365000FF920F931F93CF93DF93CDB7DEB7A19760
:103660000FB6F894DEBF0FBECDBF7C01CB01BA010F
:10367000F70111821082138212821582148242E0B5
:10368000420F8E010F5F1F4F0E945F246C01009755
:1036900071F0FC0101900020E9F731978F01081BC0
:1036A000190BB801C7010E945D1A811112C0C70130
:1036B0000E94B11AA1960FB6F894DEBF0FBECDBF1F
:1036C000DF91CF911F910F91FF90EF90DF90CF90FE
:1036D0000895F70115830483B601808191810E94CA
:1036E000202CE8CF85ED8093BC00809183029091DF
:1036F0008402A0918502B09186020796A11DB11D9A
:1037000023E0B695A795979587952A95D1F72091AF
:10371000BC0024FD03C01092CC02089540918302A6
:10372000509184026091850270918602452B462B50
:10373000472B69F30097A105B10541F02AE22A95CC
:10374000F1F700C00197A109B109E1CF8091820290
:103750000C949912BC01990F880B990B0E94BB26FF
:103760002AE038E240EA5BE30E941A279B01AC01A1
:1037700060E070E088E492E40E947C2820E030E081
:1037800040E251E40E940F282EEA37E44FEA51E468
:103790000E947C280E94222926E636E646EA5FE35C
:1037A0000E940F2829E537E147E25FEB0E947C2861
:1037B00008951F920F920FB60F9211242F933F93EB
:1037C0004F935F936F937F938F939F93AF93BF9329
:1037D000EF93FF9386E093E00E946E07FF91EF91D5
:1037E000BF91AF919F918F917F916F915F914F9119
:1037F0003F912F910F900FBE0F901F9018951F9221
:103800000F920FB60F9211242F938F939F93EF93E4
:10381000FF93E0911603F09117038081E0911C0360
:10382000F0911D0382FD1BC0908180911F038F5F6B
:103830008F7320912003821741F0E0911F03F0E085
:10384000EA5FFC4F958F80931F03FF91EF919F914B
:103850008F912F910F900FBE0F901F901895808120
:10386000F4CF1F920F920FB60F9211242F933F9314
:103870008F939F93AF93BF938091FE029091FF022D
:10388000A0910003B09101033091F20223E0230FD5
:103890002D3758F50196A11DB11D2093F20280939A
:1038A000FE029093FF02A0930003B0930103809166
:1038B000F3029091F402A091F502B091F602019604
:1038C000A11DB11D8093F3029093F402A093F50221
:1038D000B093F602BF91AF919F918F913F912F913D
:1038E0000F900FBE0F901F90189526E8230F029699
:1038F000A11DB11DD2CF1F920F920FB60F921124AE
:103900002F933F934F935F936F937F938F939F93E7
:10391000AF93BF93EF93FF938091B900887F803678
:1039200009F44AC0F0F5883209F4A7C018F58031CF
:1039300009F49BC0B8F4882309F4F9C0883009F46D
:1039400094C0FF91EF91BF91AF919F918F917F9123
:103950006F915F914F913F912F910F900FBE0F90FC
:103960001F901895883109F488C0803251F78093F0
:10397000CB0214C0803409F49DC040F48033B9F305
:103980008833F9F68093CB0285ECB0C0803509F41A
:1039900085C0883509F496C0883499F60E94721B58
:1039A000D0CF883909F48CC038F5883729F050F425
:1039B000883611F0803729F683E08093CC0210928C
:1039C000CA0257C0883809F47BC0803919F08038A2
:1039D00009F0B7CF8091CA02803208F071C0E0913F
:1039E000CA0281E08E0F8093CA028091BB00F0E092
:1039F000E655FD4F80833DC0803B39F0E0F4803ACE
:103A000009F479C0883A09F09CCF84E08093CC0215
:103A10001092A9021092A802E091FA02F091FB0222
:103A200009958091A80281110FC081E08093A802BE
:103A30001092880209C0803C09F4A6CF883C09F4A2
:103A4000A3CF883B09F07DCFE091A90281E08E0FE2
:103A50008093A902F0E0E857FD4F80818093BB007E
:103A60009091A9028091A80229C08091F1028093CF
:103A7000BB0085EC8093BC0064CF9091F0028091F4
:103A8000EF02981758F5E091F00281E08E0F8093D5
:103A9000F002F0E0E153FD4F8081E9CFE091F002C8
:103AA00081E08E0F8093F0028091BB00F0E0E15343
:103AB000FD4F80839091F0028091EF029817C8F239
:103AC00085E8D8CFE091F00281E08E0F8093F0027C
:103AD0008091BB00F0E0E153FD4F80838091CE02E6
:103AE00081115CCF81E08093CD0284EA8093BC0099
:103AF0001092CC0226CF85EC8093BC001092CC02B1
:103B00008091CA02803230F4E091CA02F0E0E655BA
:103B1000FD4F10826091CA0270E0E091F802F091CE
:103B2000F9028AEA92E009951092CA020ACF10922D
:103B3000CB0234CFE6E0F3E01382128248EE53E08A
:103B400060E070E044835583668377838AE091E088
:103B50009183808385EC90E09587848784EC90E066
:103B60009787868780EC90E0918B808B81EC90E04A
:103B7000938B828B82EC90E0958B848B86EC90E02B
:103B8000978B868B118E128E138E148EA6EBB3E05C
:103B900013961C921E92129714964D935D936D93FB
:103BA0007C9317978CE191E011969C938E93E2ECB5
:103BB000F3E01382128220E830E03583248380E42E
:103BC00090E0978386833187208793878287168A40
:103BD000158614861786168681E0858B848B2FEFD9
:103BE0003FEF338B228B318B208B878B108E128E85
:103BF000118E8EE291E091838083148E138EB68FA6
:103C0000A58F10A2178E8FEF84A385A386A387A309
:103C100080A780E89AE1A6E0B0E085AB96ABA7ABC1
:103C2000B0AF80EA96E8A1E0B0E081AF92AFA3AF79
:103C3000B4AF80E586AF17AEA3EAB3E08DE015968A
:103C40008C9315978BE016968C931697E6EFFBE016
:103C5000E4911796EC931797E2EEFBE0E491189647
:103C6000EC93189740E85EE360E070E01D964D939A
:103C70005D936D937C9350970895CF93DF93CDB769
:103C8000DEB768970FB6F894DEBF0FBECDBF78944D
:103C900084B5826084BD84B5816084BD85B5826051
:103CA00085BD85B5816085BD80916E008160809302
:103CB0006E0010928100809181008260809381006B
:103CC000809181008160809381008091800081607B
:103CD000809380008091B10084608093B1008091D6
:103CE000B00081608093B00080917A0084608093FE
:103CF0007A0080917A00826080937A0080917A00C5
:103D0000816080937A0080917A00806880937A0045
:103D10001092C100E0911603F091170382E08083B6
:103D2000E0911203F09113031082E0911403F091DB
:103D300015038FEC808310921E03E0911A03F0911B
:103D40001B0386E08083E0911803F09119038081C2
:103D500080618083E0911803F0911903808188606D
:103D60008083E0911803F09119038081806880833B
:103D7000E0911803F091190380818F7D80838091F9
:103D8000E1039091E203892B11F10E94C716209163
:103D9000C8033091C9038091C6039091C7032132B3
:103DA00031050CF050C1B9016052710977FF02C0B2
:103DB0006F5F7F4F759567958357910997FD0196C2
:103DC00000E210E023E730E046E057E04FC12091E9
:103DD000C8033091C903C901079697FD0796B3E060
:103DE00095958795BA95E1F72091C6033091C70361
:103DF000AC01429FC001439F900D529F900D112432
:103E00000E94292A9093E2038093E103892B09F011
:103E1000BCCF81E090E09093D5038093D40390933E
:103E2000D3038093D20362E08091A8030E944908E3
:103E30002FB7F8948091FE029091FF02A0910003A9
:103E4000B09101032FBF805D9740A109B109809314
:103E5000AC039093AD03A093AE03B093AF0387E39D
:103E60008093B5030E94C71612E01093D6031093F7
:103E7000D70352E3E52EF12CF092CF03E092CE036C
:103E80001092D1031092D00365E671E082EC93E0CA
:103E90000E94471A84E190E09093CF038093CE0371
:103EA0009093D1038093D00369E671E082EC93E0B4
:103EB0000E94471A81E08093D6038093D7038AE05B
:103EC00090E09093CF038093CE03F092D103E092E1
:103ED000D00362E771E082EC93E00E945B1A66E730
:103EE00071E082EC93E00E945B1A6CE771E082EC77
:103EF00093E00E94471A0E943D1568E873E180E054
:103F000090E00E94BC080E94C7161093D60310933D
:103F1000D70365E0C62ED12CD092CF03C092CE033A
:103F20007EE1E72EF12CF092D103E092D00368E815
:103F300071E082EC93E00E945B1A68EE73E080E02F
:103F400090E00E94BC080E94C7161093D6031093FD
:103F5000D703D092CF03C092CE03F092D103E09268
:103F6000D00360E971E082EC93E00E945B1A0E944A
:103F70003D1568EE73E080E090E00E94BC080E946E
:103F8000C7161093D6031093D703D092CF03C092D5
:103F9000CE03F092D103E092D00369E971E082ECA4
:103FA00093E00E945B1A0E943D1568EE73E080E08A
:103FB00090E00E94BC080E94C7161093D60310938D
:103FC000D703D092CF03C092CE03F092D103E092F8
:103FD000D00363EA71E082EC93E00E945B1A0E94D6
:103FE0003D1568EE73E080E090E00E94BC0860E060
:103FF0008EE00E94490860E08FE00E94490860E07E
:1040000080E10E94490860E081E10E94490802E3E2
:1040100010E040E0242E40E0342E0E94EE08882379
:1040200059F08091A9038B3038F08D3008F401C22B
:104030008551823008F474C2C12CD12C30ECE32EAF
:104040003FE7F32E14C2B9016054710977FF02C033
:104050006F5F7F4F759567958255910997FD019622
:1040600000E410E022E530E046EE58E095958795B3
:104070000E94451182E08093E4038091DF039091D8
:10408000E003892B09F4DFC08CE38093E3031092F3
:10409000FD021092FC0210920303109202030E9490
:1040A0007B128EEE96E09093FB028093FA028FEEE5
:1040B00096E09093F9028093F8028091EA0387FDDD
:1040C0001EC061E00E94490861E08091EA030E94FD
:1040D000FD0761E070E080E090E00E94BC0860E0D5
:1040E0008091EA030E94FD076AE070E080E090E0C2
:1040F0000E94BC0861E08091EA030E94FD07809164
:10410000DF039091E003892B09F45CC12091F70350
:104110003091F8034091F9035091FA0360E074E2A2
:1041200084EF90E00E94012A205131094109510990
:1041300056954795379527952093B80064E088EF0A
:1041400096E00E9426146091C803615082EC93E0CF
:104150000E94DB1464E084EF96E00E9426148091B4
:10416000E40360E1813009F064E182EC93E00E94B5
:10417000DB1464E080EF96E00E9426148FE88093C1
:10418000FF038091C6039091C7038038910509F021
:1041900032C18091C8039091C9038034910509F020
:1041A0003AC18091E403813009F023C18FE9809303
:1041B000FF0312E16AED82EC93E00E94DB14612FB1
:1041C00082EC93E00E94DB1461E882EC93E00E94B1
:1041D000DB146091FF0382EC93E00E94DB1469ED35
:1041E00082EC93E00E94DB148091E40362E2813070
:1041F00009F061EF82EC93E00E94DB1466E08AEE46
:1042000096E00E9426148091DF039091E003892BB1
:1042100009F405C12091FB033091FC034091FD039B
:104220005091FE0360E074E284EF90E00E94012A66
:1042300020513109410951095695479537952795E0
:104240002093B800E6CD61E08091E8030E94490820
:1042500061E08091E9030E9449088091E803082EFB
:10426000000C990BFC01EB52F44FE491F0E0EE0FDF
:10427000FF1FE450F94F259134913093F0032093C0
:10428000EF03FC01E751F44FE491E093F5038091D3
:10429000E903082E000C990BFC01EB52F44FE4915A
:1042A000F0E0EE0FFF1FE450F94FA591B491B093E9
:1042B000F203A093F103FC01E751F44FE491E09382
:1042C000F6038C91E82BEC938091DD039091DE0353
:1042D000892B09F434C01FB7F8948091F70281113B
:1042E00027C0EFEDFBE08491E3EFFBE09491E82F32
:1042F000F0E0EE0FFF1FE052F94FA591B491EC9161
:10430000E92321F461E08AE00E94FD0761E08AE090
:104310000E9449088CB580618CBD8CB580648CBDD1
:1043200061E08DE00E94490861E08BE00E9449084D
:104330008091F7028F5F8093F7021FBFBECE61E0CE
:104340008091E6030E94490861E08091E7030E94A2
:1043500049088091E603082E000C990BFC01EB52F2
:10436000F44FE491F0E0EE0FFF1FE450F94F259178
:1043700034913093EC032093EB03FC01E751F44FAD
:10438000E491E093F3038091E703082E000C990B6E
:10439000FC01EB52F44FE491F0E0EE0FFF1FE4500C
:1043A000F94FA591B491B093EE03A093ED03FC01F6
:1043B000E751F44FE491E093F4038C91E095E82306
:1043C000EC937BCE8091DD039091DE03892B31F05D
:1043D00080910004909101040E945B0CE091F10334
:1043E000F091F20390818091F60380958923808378
:1043F000A5CE8FECDCCE8036910569F48091C803A0
:104400009091C903409739F48091E403813029F4F5
:1044100080E18093FF0312E0CDCE8FEAFACFE091E6
:10442000F103F091F20380819091F603892B808350
:10443000F0CC6091A40370E090E080E00E94BB2685
:104440002DEC3CEC4CEC5DE30E941A276B017C01E7
:104450006091A30370E090E080E00E94BB269B0186
:10446000AC01C701B6010E9410286B017C010E94BB
:10447000EE08812C912C20ECA22E2FE7B22E88235F
:1044800029F080E00E942C064B015C010E94EE089E
:10449000412C512C90EC692E9FE7792E882329F02E
:1044A00081E00E942C062B013C01A7019601C70167
:1044B000B6010E94C029811110C0A5019401C50157
:1044C000B4010E94C029811108C0A3019201C30157
:1044D000B2010E94C0298823A9F186EAE82E8BE068
:1044E000F82EF7016491662349F086E093E00E947C
:1044F0009007FFEFEF1AFF0A892B99F766E571E045
:1045000086E093E00E94FF182114310409F485CD60
:104510000E945A07882309F47ACD0E94000077CDC3
:104520006091A3037091A40376276727762790E014
:1045300080E00E94B9262DEC3CEC4CEC5DE30E943F
:104540001A2793CF8EE00E9485080E94AA1B2B0198
:104550003C018FE00E9485080E94AA1B6D877E8720
:104560008F87988B80E10E9485080E94AA1B698B27
:104570007A8B8B8B9C8B81E10E9485080E94AA1B01
:104580006D8B7E8B8F8B988F0E94C71681E08093F6
:10459000D6038093D7031092CF031092CE031092CC
:1045A000D1031092D00322E0B301A201CE01019603
:1045B0000E94251B6EEA71E0CE0107960E94EC1A5C
:1045C000BE016F5F7F4FCE0107960E94D91A65EB3F
:1045D00071E00E94C31A0E940E19CE0107960E9434
:1045E0001D1BCE0101960E941D1B1092CF0310923D
:1045F000CE034AE050E05093D1034093D00322E031
:104600004D855E856F857889CE0101960E94251BB8
:104610006AEB71E0CE0107960E94EC1ABE016F5F53
:104620007F4FCE0107960E94D91A65EB71E00E9478
:10463000C31A0E940E19CE0107960E941D1BCE01BF
:1046400001960E941D1B1092CF031092CE0384E1AD
:1046500090E09093D1038093D00322E049895A8956
:104660006B897C89CE0101960E94251B61EC71E06B
:10467000CE0107960E94EC1ABE016F5F7F4FCE01FC
:1046800007960E94D91A65EB71E00E94C31A0E9436
:104690000E19CE0107960E941D1BCE0101960E94A5
:1046A0001D1B1092CF031092CE03EEE1F0E0F093C9
:1046B000D103E093D00322E04D895E896F89788D24
:1046C000CE0101960E94251B67EC71E0CE01079692
:1046D0000E94EC1ABE016F5F7F4FCE0107960E94C9
:1046E000D91A65EB71E00E94C31A0E940E19CE011F
:1046F00007960E941D1BCE0101960E941D1B109261
:10470000CF031092CE0348E250E05093D103409380
:10471000D00321E0B501A401CE0101960E94251B22
:104720006AE272E0CE0107960E94EC1ABE016F5F4A
:104730007F4FCE0107960E94D91A6DEC71E00E945E
:10474000C31A0E940E19CE0107960E941D1BCE01AE
:1047500001960E941D1B1092CF031092CE0310935E
:10476000D1030093D00321E0B701A601CE01019649
:104770000E94251B66E372E0CE0107960E94EC1AA8
:10478000BE016F5F7F4FCE0107960E94D91A60ED80
:1047900071E00E94C31A0E940E19CE0107960E9472
:1047A0001D1BCE0101960E941D1B0E943D1563ED4D
:1047B00071E086E093E00E94471A68EF71E086E0BE
:1047C00093E00E945B1A4AE0C301B2010E946B1998
:1047D00065EB71E086E093E00E94471A64E072E0C6
:1047E00086E093E00E945B1A4AE06D857E858F85A6
:1047F00098890E946B1965EB71E086E093E00E9456
:10480000471A60E172E086E093E00E945B1A4AE09A
:1048100069897A898B899C890E946B1965EB71E0A3
:1048200086E093E00E94471A6BE172E086E093E035
:104830000E945B1A4AE06D897E898F89988D0E945B
:104840006B1965EB71E086E093E00E94471A66E21F
:1048500072E086E093E00E945B1A42E0C501B40179
:104860000E946B1961E372E086E093E00E945B1A9C
:1048700065E372E086E093E00E945B1A42E0C701C4
:10488000B6010E946B1961ED71E086E093E00E9431
:10489000471A68EE73E080E090E00E94BC0834CED6
:1048A0008EE291E09093C3038093C2038091E10371
:1048B0009091E203009711F00C94C52A0895EF92AD
:1048C0000F931F93CF93DF93E80134E047FD34E16A
:1048D000042E000C550B57FF03C05195419551090B
:1048E000E32E022F242FAE010E947D24CE01DF9102
:1048F000CF911F910F91EF900895A9E0B0E0E3E808
:10490000F4E20C94DE276A01F22EB02E102FFBE3A6
:10491000AF2EA01608F41BE31F5F012F27E0AE01A6
:104920004F5F5F4F0E94DC25BC018981982F9970F1
:10493000913009F43FC09BE2E1FC04C09E2D9170D0
:10494000E0FC3AC05E2D5071E82FE87083FF46C04E
:1049500084E0911101C083E0EF2DE81B8F1508F072
:10496000E0E0D6018E2F20E2552351F1992329F062
:10497000D6019C93C60101966C0196012D5F3F4FB5
:10498000E2FE24C08EE4D6018C9391E411969C93B0
:10499000119712968C93D9018E2F90E281111BC032
:1049A000E20FF32FF11D10828EEF9FEF2996ECE0BE
:1049B0000C94FA279DE2C6CF90E2C4CF2D9381508C
:1049C0008111FCCFCE0ED11CE0E0D0CF8EE6D60117
:1049D0008C9391E6DBCF9D938150E0CF482F4470BC
:1049E00082FF3DC084E0911101C083E08F1510F477
:1049F000EF2DE81BD6018E2F20E2552309F19923D4
:104A000029F0D6019C93C60101966C0196012D5F99
:104A10003F4FE2FE1BC089E4D6018C938EE41196D1
:104A20008C93119786E412968C93D9018E2F90E285
:104A3000882309F4B5CF9D938150FACF2D938150EF
:104A40008111FCCFCE0ED11CE0E0D9CF89E6D60192
:104A50008C938EE611968C93119786E6E4CF9B019A
:104A600077FF02C030E020E0A1E0B0E0911102C089
:104A7000B0E0A0E0F9013196AE0FBF1F8B2C912C56
:104A8000BB2009F461C05401EFEFAE1ABE0AAA0DB3
:104A9000BB1DFA161B0619F014F04F2D4A1B5111BD
:104AA00088C0E3FC59C07601A42FB0E2A1114FC029
:104AB000C40ED11C992309F45BC040E0D6011196C5
:104AC000F60190836D01552309F448C0012F060FAC
:104AD0009A81582F507184FF03C0913309F401501B
:104AE00010160CF047C0093008F008E0EEE2FE2E88
:104AF0005B01A01AB10885019194819491082F3F20
:104B0000320729F4D601FC92F60131966F01621743
:104B1000730794F1021713077CF5DB01A21BB30B9B
:104B2000AA24A394B12CAC0EBD1EAA0DBB1D1196D8
:104B30008C9121503109D601119628153905F4F0D0
:104B4000F60180836D01DBCFB12CA12CA0CFF70142
:104B5000B1937F01A150AACF9111B0CFD601942F6C
:104B600050E302C05D9391509111FCCFC40ED11C53
:104B700040E0ACCF01E0BACF80E3DBCF6217730730
:104B800031F4963388F4953311F4552369F0F60126
:104B90008083FD01842F90E2811108C0A40FB11D14
:104BA0001C9290E080E002CF81E3F1CF919381509D
:104BB000F3CF911183CF8ACF283008F027E0332735
:104BC000DA01990F311D87FD91600096610571052D
:104BD00039F432602E5F3D9330E32A95E1F7089572
:104BE0009F3F30F080387105610509F03C5F3C5F04
:104BF0003D93913008F08068911DDF93CF931F9310
:104C00000F93FF92EF92192F987F9695E92F969523
:104C10009695E90FFF27E45EFE4F99273327EE2490
:104C2000FF24A701E70105900894079428F4360FA4
:104C3000E71EF81E491F511D660F771F881F991F19
:104C40000694A1F70590079428F4E70EF81E491F73
:104C5000561FC11D770F881F991F661F0694A1F765
:104C60000590079428F4F80E491F561FC71FD11D41
:104C7000880F991F661F771F0694A1F70590079468
:104C800020F4490F561FC71FD81F990F661F771FA3
:104C9000881F0694A9F784911095177041F0D69556
:104CA000C79557954795F794E7941A95C1F7E2ECA5
:104CB000F0E0689415901591359165919591059066
:104CC0007FE27395E118F10A430B560BC90BD0092B
:104CD000C0F7E10CF11E431F561FC91FD01D7EF403
:104CE000703311F48A95E6CFE894015030F0080F44
:104CF0000AF40027021708F4202F2395022F7A3395
:104D000028F079E37D932A95E9F710C07D932A95E1
:104D100089F6069497956795379517951794E11836
:104D2000F10A430B560BC90BD00998F023957E91DD
:104D300073957A3308F070E37C932013B8F77E9173
:104D400070617D9330F0839571E37D9370E32A95D4
:104D5000E1F71124EF90FF900F911F91CF91DF9118
:104D6000992787FD909508950E94F62608F481E022
:104D70000895E89409C097FB3EF49095809570954E
:104D800061957F4F8F4F9F4F9923A9F0F92F96E997
:104D9000BB279395F695879577956795B795F1110C
:104DA000F8CFFAF4BB0F11F460FF1BC06F5F7F4FA9
:104DB0008F4F9F4F16C0882311F096E911C07723BB
:104DC00021F09EE8872F762F05C0662371F096E8C4
:104DD000862F70E060E02AF09A95660F771F881F93
:104DE000DAF7880F9695879597F90895990F000837
:104DF000550FAA0BE0E8FEEF16161706E807F907AD
:104E0000C0F012161306E407F50798F0621B730B47
:104E1000840B950B39F40A2661F0232B242B252BC8
:104E200021F408950A2609F4A140A6958FEF811D6B
:104E3000811D08950E942D270C949E270E94902783
:104E400038F00E94972720F0952311F00C948727C3
:104E50000C948D2711240C94D2270E94AF2770F355
:104E6000959FC1F3950F50E0551F629FF001729F0F
:104E7000BB27F00DB11D639FAA27F00DB11DAA1F1E
:104E8000649F6627B00DA11D661F829F2227B00D6B
:104E9000A11D621F739FB00DA11D621F839FA00DF6
:104EA000611D221F749F3327A00D611D231F849F46
:104EB000600D211D822F762F6A2F11249F5750409D
:104EC0009AF0F1F088234AF0EE0FFF1FBB1F661F18
:104ED000771F881F91505040A9F79E3F510580F0E1
:104EE0000C9487270C94D2275F3FE4F3983ED4F3C9
:104EF000869577956795B795F795E7959F5FC1F785
:104F0000FE2B880F911D9695879597F9089597F92F
:104F10009F6780E870E060E008959FEF80EC08955F
:104F200000240A9416161706180609060895002488
:104F30000A9412161306140605060895092E039402
:104F4000000C11F4882352F0BB0F40F4BF2B11F476
:104F500060FF04C06F5F7F4F8F4F9F4F089557FDD5
:104F60009058440F551F59F05F3F71F04795880FD7
:104F700097FB991F61F09F3F79F08795089512166E
:104F800013061406551FF2CF4695F1DF08C016161A
:104F900017061806991FF1CF8695710561050894CB
:104FA0000895E894BB2766277727CB0197F90895E2
:104FB0002F923F924F925F926F927F928F929F9229
:104FC000AF92BF92CF92DF92EF92FF920F931F9317
:104FD000CF93DF93CDB7DEB7CA1BDB0B0FB6F894C8
:104FE000DEBF0FBECDBF09942A88398848885F8408
:104FF0006E847D848C849B84AA84B984C884DF8079
:10500000EE80FD800C811B81AA81B981CE0FD11D5C
:105010000FB6F894DEBF0FBECDBFED010895505816
:10502000BB27AA270E9427280C949E270E9490271E
:1050300038F00E94972720F039F49F3F19F426F4A6
:105040000C948D270EF4E095E7FB0C948727E92F4D
:105050000E94AF2758F3BA176207730784079507B2
:1050600020F079F4A6F50C94D1270EF4E0950B2EE0
:10507000BA2FA02D0B01B90190010C01CA01A001AA
:105080001124FF27591B99F0593F50F4503E68F105
:105090001A16F040A22F232F342F4427585FF3CF46
:1050A000469537952795A795F0405395C9F77EF417
:1050B0001F16BA0B620B730B840BBAF09150A1F060
:1050C000FF0FBB1F661F771F881FC2F70EC0BA0FE6
:1050D000621F731F841F48F4879577956795B7956E
:1050E000F7959E3F08F0B0CF9395880F08F0992769
:1050F000EE0F9795879508950E9490280C949E270F
:105100000E94972758F00E94902740F029F45F3FB3
:1051100029F00C94872751110C94D2270C948D27D9
:105120000E94AF2768F39923B1F3552391F3951BA0
:10513000550BBB27AA2762177307840738F09F5FB8
:105140005F4F220F331F441FAA1FA9F335D00E2E25
:105150003AF0E0E832D091505040E695001CCAF792
:105160002BD0FE2F29D0660F771F881FBB1F261755
:1051700037074807AB07B0E809F0BB0B802DBF012C
:10518000FF2793585F4F3AF09E3F510578F00C94FB
:1051900087270C94D2275F3FE4F3983ED4F386959B
:1051A00077956795B795F7959F5FC9F7880F911D1C
:1051B0009695879597F90895E1E0660F771F881F08
:1051C000BB1F621773078407BA0720F0621B730BBB
:1051D000840BBA0BEE1F88F7E09508950E94B7275D
:1051E00088F09F5798F0B92F9927B751B0F0E1F0A8
:1051F000660F771F881F991F1AF0BA95C9F714C058
:10520000B13091F00E94D127B1E008950C94D127DC
:10521000672F782F8827B85F39F0B93FCCF3869590
:1052200077956795B395D9F73EF4909580957095ED
:1052300061957F4F8F4F9F4F08950E94F62608F487
:105240008FEF08950E94322929ED3BE54EED5EE394
:105250000C941A2716F00C94C5290C948D27689489
:105260000C9487270E94B727A8F39923C1F3AEF3C4
:10527000DF93CF931F930F93FF92C92FDD278823CE
:105280002AF02197660F771F881FDAF720E030E0B9
:1052900040E85FEB9FE3883920F0803E38F02196AC
:1052A0008F770E941028E8E6F0E004C00E941028E2
:1052B000E5E9F0E00E94DA298B01BE01EC01FB2E4A
:1052C0006F5771097595771F880B990B0E94BB2644
:1052D00028E132E741E35FE30E942D27AF2D9801DB
:1052E000AE01FF900F911F91CF91DF910E9427286F
:1052F0000C949E2719F416F40C948D270C94C52950
:105300000E94B727B8F39923C9F3B6F39F57550BFB
:1053100087FF0E94D3290024A0E640EA900180582C
:105320005695979528F4805C660F771F881F20F0AC
:1053300026173707480730F4621B730B840B2029AC
:1053400031294A2BA69517940794202531254A2701
:1053500058F7660F771F881F20F026173707480772
:1053600030F4620B730B840B200D311D411DA09591
:1053700081F7B901842F9158880F969587950895E4
:105380000E94F626880B990B08959F3F31F09150AB
:1053900020F4879577956795B795880F911D969519
:1053A000879597F9089591505040660F771F881F91
:1053B000D2F70895DF93CF931F930F93FF92EF924D
:1053C000DF927B018C01689406C0DA2EEF010E9407
:1053D0002D27FE01E894A591259135914591559190
:1053E000A6F3EF010E942728FE019701A801DA9495
:1053F00069F7DF90EF90FF900F911F91CF91DF91B0
:105400000895A1E21A2EAA1BBB1BFD010DC0AA1F05
:10541000BB1FEE1FFF1FA217B307E407F50720F01D
:10542000A21BB30BE40BF50B661F771F881F991F98
:105430001A9469F760957095809590959B01AC01E1
:10544000BD01CF010895EE0FFF1F0590F491E02DEF
:1054500009940F931F93CF93DF938230910510F43B
:1054600082E090E0E0910404F091050430E020E057
:10547000B0E0A0E0309799F42115310509F44AC055
:10548000281B390B24303105D8F58A819B816115A1
:10549000710589F1FB0193838283FE0111C0408174
:1054A00051810281138148175907E0F048175907C5
:1054B00099F4109761F012960C93129713961C931F
:1054C0003296CF01DF91CF911F910F9108950093F4
:1054D000040410930504F4CF2115310551F042174F
:1054E000530738F0A901DB019A01BD01DF01F80182
:1054F000C1CFEF01F9CF9093050480930404CDCF81
:10550000FE01E20FF31F81939193225031093983F9
:105510002883D7CF2091020430910304232B41F438
:10552000209102013091030130930304209302047F
:1055300020910001309101012115310541F42DB771
:105540003EB74091040150910501241B350BE091B9
:105550000204F0910304E217F307A0F42E1B3F0BA3
:105560002817390778F0AC014E5F5F4F24173507D5
:1055700048F04E0F5F1F5093030440930204819341
:1055800091939FCFF0E0E0E09CCFCF93DF93009723
:10559000E9F0FC01329713821282A0910404B091C9
:1055A0000504ED0130E020E01097A1F42081318165
:1055B000820F931F209102043091030428173907AA
:1055C00009F061C0F0930304E0930204DF91CF91EE
:1055D0000895EA01CE17DF07E8F54A815B819E0155
:1055E00041155105B1F7E901FB83EA8349915991CE
:1055F000C40FD51FEC17FD0761F4808191810296DD
:10560000840F951FE90199838883828193819B830D
:105610008A83F0E0E0E012968D919C9113970097B9
:10562000B9F52D913C911197CD010296820F931FF0
:1056300020910204309103042817390739F6309776
:1056400051F51092050410920404B0930304A09342
:105650000204BCCFD383C28340815181840F951F44
:10566000C817D90761F44E5F5F4F88819981480F51
:10567000591F518340838A819B81938382832115A3
:10568000310509F0B0CFF0930504E09304049ECFF8
:10569000FD01DC01C0CF13821282D7CFB0E0A0E0C1
:1056A000E4E5FBE20C94DA278C01009751F4CB017E
:1056B0000E94292A8C01C801CDB7DEB7E0E10C9425
:1056C000F627FC01E60FF71F9C0122503109E21773
:1056D000F30708F49DC0D901CD91DC911197C6174D
:1056E000D70798F0C530D10530F3CE01049786175F
:1056F000970708F3C61BD70B2297C193D1936D93DD
:105700007C93CF010E94C52AD6CF5B01AC1ABD0A9B
:105710004C018C0E9D1EA0910404B0910504512CE7
:10572000412CF12CE12C109731F5809102049091DD
:1057300003048815990509F05CC04616570608F061
:1057400058C08091000190910101009741F48DB7FC
:105750009EB74091040150910501841B950BE817F9
:10576000F90708F055C0F0930304E0930204F9012F
:1057700071836083A0CF8D919C91119712966C904C
:10578000129713967C901397A815B90559F56C01DB
:1057900042E0C40ED11CCA14DB0420F1AC014A194A
:1057A0005B09DA011296159780F062827382518349
:1057B0004083D9016D937C93E114F10471F0D7011A
:1057C0001396FC93EE93129776CF22968C0F9D1F23
:1057D000F90191838083F301EFCFF0930504E09307
:1057E000040469CF4816590608F42C017D01D30141
:1057F0009ACFCB010E94292A7C01009749F0AE0183
:10580000B8010E94102CC8010E94C52A870153CFFD
:1058100010E000E050CF81E090E0F8940C94272C49
:10582000FB01DC0102C001900D9241505040D8F7BD
:105830000895DC0101C06D9341505040E0F7089598
:10584000FB01DC0101900D920020E1F7089516E0C4
:10585000C0E0D6E004C0FE010E94232A2196C13098
:10586000D107C9F7F894FFCF0000060480000000BC
:1058700000009007F0061D07DD074E072C074007C4
:10588000000000001013E312C4162B06DC12C9122C
:10589000BA1200000000990EF006C4165312A40BB1
:1058A0002B063E11161132112611A6112B065F0C84
:1058B0006E16140B5D0B5F104210CA0F6B0F0D0AB2
:1058C000006E616E00696E66006F766600476173F8
:1058D00000416E616C797A657200427920004D4218
:1058E000444B20005369726977617264656E610090
:1058F0004C4F4144494E47004C6F6164696E672EBE
:10590000004C6F6164696E672E2E004C6F61646994
:105910006E672E2E2E00434834203A20002050502F
:105920004D00434F32203A2000434F203A20004898
:1059300032203A20002043002025002A2A2A2A2A41
:105940002A2A2A2A2A2A2A2A2A2A2A2A2A2A2A2AB7
:105950002A2A2A2A2A2A2A2A2A2A2A2A2A2A2A00D1
:105960004348342056616C75653A2000434F32201D
:1059700056616C75653A2000434F2056616C756521
:105980003A200048322056616C75653A2000444840
:10599000542D54656D703A2000C2B0430020487504
:0A59A0006D69646974793A20000013
:107800000C94343C0C94513C0C94513C0C94513CE1
:107810000C94513C0C94513C0C94513C0C94513CB4
:107820000C94513C0C94513C0C94513C0C94513CA4
:107830000C94513C0C94513C0C94513C0C94513C94
:107840000C94513C0C94513C0C94513C0C94513C84
:107850000C94513C0C94513C0C94513C0C94513C74
:107860000C94513C0C94513C11241FBECFEFD8E036
:10787000DEBFCDBF11E0A0E0B1E0ECE9FFE702C060
:1078800005900D92A230B107D9F712E0A2E0B1E065
:1078900001C01D92AD30B107E1F70E942D3D0C945F
:1078A000CC3F0C94003C982F959595959595959582
:1078B000905D8F708A307CF0282F295A8091C0000B
:1078C00085FFFCCF9093C6008091C00085FFFCCF60
:1078D0002093C6000895282F205DF0CF982F809127
:1078E000C00085FFFCCF9093C6000895EF92FF92F1
:1078F0000F931F93EE24FF2487018091C00087FD22
:1079000017C00894E11CF11C011D111D81E4E8164B
:1079100082E4F8068FE0080780E0180770F3E09132
:107920000401F091050109958091C00087FFE9CF1E
